:100000000C943C020C9459020C9459020C94590221
:100010000C9459020C9459020C9459020C945902F4
:100020000C9459020C9459020C9459020C945902E4
:100030000C9459020C9459020C9459020C945902D4
:100040000C9459020C9459020C9459020C945902C4
:100050000C9459020C9459020C9459020C945902B4
:100060000C9459020C9459020C9459020C945902A4
:100070000C9459020C9459020C9459020C94590294
:100080000C9459020C9459020C9459022C2D2C2DCD
:100090002C2D2C2D1D2D2F2D202D202D202D202DD4
:1000A000232D202D2C2E3F2E3F2E3F2E472E472E28
:1000B0004F2E752EAF2EAF2EF32EE32E05680100C6
:1000C00000000400000000000556010000000400CC
:1000D00009570100040004000D6801000800040035
:1000E00010100C1000000000055701000000040073
:1000F0000967010004000400000000000568010019
:10010000000004000000000005570100000004008A
:1001100009570100040004000C1108400000000011
:100120000568010000000400000000000556010001
:100130000000040009570100040004000D560100EE
:100140000800040000000000055701000000040042
:1001500009670100040004000D57010008000400B5
:10016000115701000C000400156701001000040085
:1001700019570100140004001D6701001800040055
:10018000255701001C00040029570100200004002D
:100190000000000008C9BCF367E6096A3BA7CA84EF
:1001A00085AE67BB2BF894FE72F36E3CF1361D5F93
:1001B0003AF54FA5D182E6AD7F520E511F6C3E2B12
:1001C0008C68059B6BBD41FBABD9831F79217E13E6
:1001D00019CDE05B22AE28D7982F8A42CD65EF2358
:1001E000914437712F3B4DECCFFBC0B5BCDB89810F
:1001F000A5DBB5E938B548F35BC2563919D005B669
:10020000F111F1599B4F19AFA4823F9218816DDA19
:10021000D55E1CAB420203A398AA07D8BE6F7045F7
:10022000015B83128CB2E44EBE853124E2B4FFD56B
:10023000C37D0C556F897BF2745DBE72B196163B1F
:10024000FEB1DE803512C725A706DC9B942669CF58
:1002500074F19BC1D24AF19EC1699BE4E3254F38FA
:100260008647BEEFB5D58C8BC69DC10F659CAC771C
:10027000CCA10C2475022B596F2CE92D83E4A66EBA
:10028000AA84744AD4FB41BDDCA9B05CB553118388
:10029000DA88F976ABDF66EE52513E981032B42D13
:1002A0006DC631A83F21FB98C82703B0E40EEFBE0E
:1002B000C77F59BFC28FA83DF30BE0C625A70A939D
:1002C0004791A7D56F8203E05163CA06706E0E0A8C
:1002D00067292914FC2FD246850AB72726C9265C30
:1002E00038211B2EED2AC45AFC6D2C4DDFB3959D91
:1002F000130D3853DE63AF8B54730A65A8B2773C95
:10030000BB0A6A76E6AEED472EC9C2813B35821440
:10031000852C72926403F14CA1E8BFA2013042BC6B
:100320004B661AA89197F8D0708B4BC230BE54061A
:10033000A3516CC71852EFD619E892D110A9655590
:10034000240699D62A20715785350EF4B8D1BB32D0
:1003500070A06A10C8D0D2B816C1A41953AB4151CD
:10036000086C371E99EB8EDF4C774827A8489BE135
:10037000B5BCB034635AC9C5B30C1C39CB8A41E350
:100380004AAAD84E73E363774FCA9C5BA3B8B2D630
:10039000F36F2E68FCB2EF5DEE828F74602F17430F
:1003A0006F63A57872ABF0A11478C884EC39641A35
:1003B0000802C78C281E6323FAFFBE90E9BD82DEC7
:1003C000EB6C50A41579C6B2F7A3F9BE2B5372E3B8
:1003D000F27871C69C6126EACE3E27CA07C2C021C8
:1003E000C7B886D11EEBE0CDD67DDAEA78D16EEEC5
:1003F0007F4F7DF5BA6F1772AA67F006A698C8A25C
:10040000C57D630AAE0DF9BE04983F111B471C134E
:10041000350B711B847D0423F577DB289324C740BB
:100420007BABCA32BCBEC9150ABE9E3C4C0D109CAB
:10043000C4671D43B6423ECBBED4C54C2A7E65FC84
:100440009C297F59ECFAD63AAB6FCB5F1758474AD5
:100450008C19446C05570100000004000957010085
:10046000040004000C1408400000000005570100BF
:10047000000004000000000011241FBECFEFD0E4F4
:10048000DEBFCDBF19E0A0E0B1E0E0EBF4EA02C0CE
:1004900005900D92A237B107D9F729E0A2E7B9E09C
:1004A00001C01D92A038B207E1F70E947B4C0C946A
:1004B00056520C940000DC01E1E8F2E0E61BF10981
:1004C00009941D921D921D921D921D921D921D92C6
:1004D0001D921D921D921D921D921D921D921D92A4
:1004E0001D921D921D921D921D921D921D921D9294
:1004F0001D921D921D921D921D921D921D921D9284
:100500001D920895CF93DF93440FEB01DC01ECECD7
:10051000F2E0E41BF109099409900D9209900D9203
:1005200009900D9209900D9209900D9209900D92EB
:1005300009900D9209900D9209900D9209900D92DB
:1005400009900D9209900D9209900D9209900D92CB
:1005500009900D9209900D9209900D9209900D92BB
:1005600009900D9209900D9209900D9209900D92AB
:1005700009900D9209900D9209900D9209900D929B
:1005800009900D9209900D9209900D9209900D928B
:1005900009900D9209900D92DF91CF910895262F29
:1005A00032E0639F200D11242350DC01EDE3F3E0E2
:1005B000E21BF109A60FB11D0E9006940C9209944E
:1005C0000E9007940C920E9007940C920E90079444
:1005D0000C920E9007940C920E9007940C920E9031
:1005E00007940C920E9007940C920E9007940C9224
:1005F0000E9007940C920E9007940C920E90079414
:100600000C920E9007940C920E9007940C920E9000
:1006100007940C920E9007940C920E9007940C92F3
:100620000E9007940C920E9007940C920E900794E3
:100630000C920E9007940C920E9007940C920E90D0
:1006400007940C920E9007940C920E9007940C92C3
:100650000E9007940C920E9007940C920E900794B3
:100660000C920E9007940C920E9007940C920E90A0
:1006700007940C920E9007940C920895CF93DF93F9
:10068000220FDB01EA01AC01EAE8F3E0E21BF10929
:1006900088940994FA013EC0FA0140C0FA0142C0B0
:1006A000FA0144C0FA0146C0FA0148C0FA014AC042
:1006B000FA014CC0FA014EC0FA0150C0FA0152C012
:1006C000FA0154C0FA0156C0FA0158C0FA015AC0E2
:1006D000FA015CC0FA015EC0FA0160C0FA0162C0B2
:1006E000FA0164C0FA0166C0FA0168C0FA016AC082
:1006F000FA016CC0FA016EC0FA0170C0FA0172C052
:10070000FA0174C0FA0176C0FA0178C0FA017AC021
:10071000FA017CC08D919991891F81938D91999156
:10072000891F81938D919991891F81938D919991C1
:10073000891F81938D919991891F81938D919991B1
:10074000891F81938D919991891F81938D919991A1
:10075000891F81938D919991891F81938D91999191
:10076000891F81938D919991891F81938D91999181
:10077000891F81938D919991891F81938D91999171
:10078000891F81938D919991891F81938D91999161
:10079000891F81938D919991891F81938D91999151
:1007A000891F81938D919991891F81938D91999141
:1007B000891F81938D919991891F81938D91999131
:1007C000891F81938D919991891F81938D91999121
:1007D000891F81938D919991891F81938D91999111
:1007E000891F81938D919991891F81938D91999101
:1007F000891F81938D919991891F81938D919991F1
:10080000891F81938D919991891F81938D919991E0
:10081000891F8193812D881FDF91CF910895CF93F8
:10082000DF93220FDB01EA01AC01EBE5F4E0E21B10
:10083000F10988940994FA013EC0FA0140C0FA0116
:1008400042C0FA0144C0FA0146C0FA0148C0FA01A8
:100850004AC0FA014CC0FA014EC0FA0150C0FA0178
:1008600052C0FA0154C0FA0156C0FA0158C0FA0148
:100870005AC0FA015CC0FA015EC0FA0160C0FA0118
:1008800062C0FA0164C0FA0166C0FA0168C0FA01E8
:100890006AC0FA016CC0FA016EC0FA0170C0FA01B8
:1008A00072C0FA0174C0FA0176C0FA0178C0FA0188
:1008B0007AC0FA017CC08D919991890B81938D91B9
:1008C0009991890B81938D919991890B81938D9148
:1008D0009991890B81938D919991890B81938D9138
:1008E0009991890B81938D919991890B81938D9128
:1008F0009991890B81938D919991890B81938D9118
:100900009991890B81938D919991890B81938D9107
:100910009991890B81938D919991890B81938D91F7
:100920009991890B81938D919991890B81938D91E7
:100930009991890B81938D919991890B81938D91D7
:100940009991890B81938D919991890B81938D91C7
:100950009991890B81938D919991890B81938D91B7
:100960009991890B81938D919991890B81938D91A7
:100970009991890B81938D919991890B81938D9197
:100980009991890B81938D919991890B81938D9187
:100990009991890B81938D919991890B81938D9177
:1009A0009991890B81938D919991890B81938D9167
:1009B0009991890B8193812D881FDF91CF910895A3
:1009C000CF93DF93FC01DB01EA0190E0892F392FFF
:1009D000492F51E060E0C50FD41F0D901A90019C83
:1009E000900D811D341F63956517B8F3A51BB40BDB
:1009F0009193982F832F342F5395521758F3522FDA
:100A0000C20FD41F60E00D901A90019C900D811DC3
:100A1000341F63956517B8F3C50FD41F9193982FB2
:100A2000832F342F5A95A51BB40B541759F7919364
:100A30001124DF91CF910895AC0190E020E096174A
:100A40004CF4FA01E90FF11D97FDFA958081282BEE
:100A50009F5FF5CF81E0211180E008959B0143E085
:100A6000359527954A95E1F7820F931F6770772791
:100A700021E030E001C0220F6A95EAF7FC01808195
:100A800082230895615067FF0CC06F5F11F1062E3D
:100A9000000C770B860F971FFC013197808120E0B7
:100AA00009C0FC01E60FF11D67FDFA9520812223A4
:100AB00049F3EBCF882319F086952F5FFBCFCB014D
:100AC000019733E0880F991F3A95E1F7820F911D46
:100AD000089580E090E00895FC01415047FD12C068
:100AE000242F042E000C330BDF01A20FB31F5C91E7
:100AF000DB01A20FB31F9C91951730F0591768F7CF
:100B00008FEF089580E0089581E008951F93CF93BB
:100B1000DF93EC01DB0110E0EDB7FEB778970FB67D
:100B2000F894FEBF0FBEEDBF799698962E9126954C
:100B300022932E91279522932E91279522932E91E1
:100B4000279522932E91279522932E9127952293D4
:100B50002E91279522932E91279522932E912795BA
:100B600022932E91279522932E91279522932E91B1
:100B7000279522932E91279522932E9127952293A4
:100B80002E91279522932E91279522932E9127958A
:100B900022932E91279522932E91279522932E9181
:100BA0002795229322272795229333972D912193DE
:100BB0002D9121932D9121932D913081230F2193FC
:100BC0002D913081231F21932D913081231F21935B
:100BD0002D913081231F21932D913081231F21934B
:100BE0002D913081231F21932D913081231F21933B
:100BF0002D913081231F21932D913081231F21932B
:100C00002D913081231F21932D913081231F21931A
:100C10002D913081231F21932D913081231F21930A
:100C20002D913081231F21932D913081231F2193FA
:100C30002D913081231F21932D913081231F2193EA
:100C40002081211D21932081211D21932081211D9F
:100C500021932081211D21937897989721913D918F
:100C6000230F299321913D91231F299321913D9198
:100C7000231F299321913D91231F299321913D9178
:100C8000231F299321913D91231F299321913D9168
:100C9000231F299321913D91231F299321913D9158
:100CA000231F299321913D91231F299321913D9148
:100CB000231F299321913D91231F299321913D9138
:100CC000231F299321913D91231F299321913D9128
:100CD000231F299321913D91231F299321913D9118
:100CE000231F299321913D91231F299321913D9108
:100CF000231F299321913D91231F2993111D64974F
:100D00003496229126952E93229127952E93229107
:100D100027952E93229127952E93222727952E9360
:100D2000139721912D9321912D9321912D93219111
:100D30003C91230F2D932C91211D2D932C91211D3E
:100D40002D932C91211D2D932C91211D2D931897BE
:100D50002D913881230F29932D913881231F2993B9
:100D60002D913881231F29932D913881231F299399
:100D70002D913881231F29932D913881231F299389
:100D80002D913881231F29932D913881231F299379
:100D90002881211D29932881211D29932881211D26
:100DA00029932881211D29932881211D2993288198
:100DB000211D29932881211D29932881211D2993F3
:100DC0002881211D29932881211D29932881211DF6
:100DD00029932881211D2993111D649731970FB6FE
:100DE000F894FEBF0FBEEDBF112379F024E14CED66
:100DF00054E0BC010E940F04113039F024E14CEDA5
:100E000054E0BE01CE010E940F0444E16CED74E099
:100E1000CE010E946C05181654F424E14CED54E008
:100E2000BE01CE01DF91CF911F910C940F04DF9191
:100E3000CF911F9108951F93CF93DF93EC01DB01B6
:100E400010E0EDB7FEB7B5970FB6F894FEBF0FBE32
:100E5000EDBF3196909693E081ED2D913D914D91AE
:100E60005D91829F0192612D70E0839F600D711DE5
:100E7000929F600D711D619360E0849F700D611DF4
:100E8000939F700D611D719370E0859F600D711DC2
:100E9000949F600D711D619360E0720F661F2D912C
:100EA000829F700D611D959F700D611D719370E0A3
:100EB000630F771F3D91839F600D711D929F600DA1
:100EC000711D619360E0740F661F4D91849F700DDA
:100ED000611D939F700D611D719370E0650F771F09
:100EE0005D91859F600D711D949F600D711D6193D3
:100EF00060E0720F661F2D91829F700D611D959F9E
:100F0000700D611D719370E0630F771F3D91839F9A
:100F1000600D711D929F600D711D619360E0740FF3
:100F2000661F4D91849F700D611D939F700D611D13
:100F3000719370E0650F771F5D91859F600D711D46
:100F4000949F600D711D619360E0720F661F2D917B
:100F5000829F700D611D959F700D611D719370E0F2
:100F6000630F771F3D91839F600D711D929F600DF0
:100F7000711D619360E0740F661F4D91849F700D29
:100F8000611D939F700D611D719370E0650F771F58
:100F90005D91859F600D711D949F600D711D619322
:100FA00060E0720F661F2D91829F700D611D959FED
:100FB000700D611D719370E0630F771F3D91839FEA
:100FC000600D711D929F600D711D619360E0740F43
:100FD000661F4D91849F700D611D939F700D611D63
:100FE000719370E0650F771F5D91859F600D711D96
:100FF000949F600D711D619360E0720F661F2D91CB
:10100000829F700D611D959F700D611D719370E041
:10101000630F771F3D91839F600D711D929F600D3F
:10102000711D619360E0740F661F4D91849F700D78
:10103000611D939F700D611D719370E0650F771FA7
:101040005D91859F600D711D949F600D711D619371
:1010500060E0720F661F2D91829F700D611D959F3C
:10106000700D611D719370E0630F771F3D91839F39
:10107000600D711D929F600D711D619360E0740F92
:10108000661F4D91849F700D611D939F700D611DB2
:10109000719370E0650F771F5D91859F600D711DE5
:1010A000949F600D711D619360E0720F661F2D911A
:1010B000829F700D611D959F700D611D719370E091
:1010C000630F771F3D91839F600D711D929F600D8F
:1010D000711D619360E0740F661F4D91849F700DC8
:1010E000611D939F700D611D719370E0650F771FF7
:1010F0005D91859F600D711D949F600D711D6193C1
:1011000060E0720F661F959F700D611D719370E016
:10111000630F771F619360E0740F661F719370E037
:10112000650F771F619371931124B597A054B1098E
:1011300021913D91230F299321913D91231F2993C3
:1011400021913D91231F299321913D91231F2993A3
:1011500021913D91231F299321913D91231F299393
:1011600021913D91231F299321913D91231F299383
:1011700021913D91231F299321913D91231F299373
:1011800021913D91231F299321913D91231F299363
:1011900021913D91231F299321913D91231F299353
:1011A00021913D91231F299321913D91231F299343
:1011B00021913D91231F299321913D91231F299333
:1011C00021913D91231F299321913D91231F299323
:1011D00021913D91231F299321913D91231F299313
:1011E00021913D91231F299321913D91231F299303
:1011F00021913D91231F299321913D91231F2993F3
:1012000021913D91231F299321913D91231F2993E2
:1012100021913D91231F299321913D91231F2993D2
:1012200021913D91231F299321913D91231F2993C2
:10123000111DA09790972191319141915191829FD9
:101240000D92612D70E0839F600D711D929F600D66
:10125000711D6D9360E0849F700D611D939F700DF3
:10126000611D7D9370E0859F600D711D949F600DE1
:10127000711D6D9360E0720F661F2191829F700D4A
:10128000611D959F700D611D7D9370E0630F771F49
:10129000929F600D711D6D9360E0740F661F7D93CA
:1012A00070E0650F771F6D9360E0720F661F7D938E
:1012B0006D9311241A972D913881230F29932D9125
:1012C0003881231F29932D913881231F29932D9134
:1012D0003881231F29932D913881231F29932D9124
:1012E0003881231F29932D913881231F29932D9114
:1012F0003881231F29932D913881231F29932D9104
:101300003881231F29932881211D29932881211D9C
:1013100029932881211D29932881211D2993288122
:10132000211D29932881211D29932881211D29937D
:101330002881211D29932881211D29932881211D80
:1013400029932881211D29932881211D29932881F2
:10135000211D29932881211D29932881211D29934D
:101360002881211D29932881211D29932881211D50
:1013700029932881211D29932881211D29932881C2
:10138000211D29932881211D2993111DA097319793
:101390000FB6F894FEBF0FBEEDBF112381F020E21F
:1013A00040E354E0BE01CE010E940F04113039F039
:1013B00020E240E354E0BE01CE010E940F0440E26F
:1013C00060E374E0CE010E946C05181654F420E22C
:1013D00040E354E0BE01CE01DF91CF911F910C9408
:1013E0000F04DF91CF911F9108950F931F93CF9317
:1013F000DF93CDB7DEB7A0970FB6F894DEBF0FBE70
:10140000CDBF142F242FAB01BC01CE0101960E9449
:101410000F04082F612FCE0101960E941C0591E058
:10142000811190E081E0011101C080E0880F981BDC
:10143000892FA0960FB6F894DEBF0FBECDBFDF9107
:10144000CF911F910F910895EF92FF920F93CF9339
:10145000DF93EC017901202F0E943E03811107C028
:10146000402FBE01C7010E946C05813059F0202F2A
:10147000A701BE01CE01DF91CF910F91FF90EF90B8
:101480000C940F04DF91CF910F91FF90EF9008958E
:10149000EF92FF920F93CF93DF93EC017901202F0E
:1014A0000E940F04882359F0202FA701BE01CE010E
:1014B000DF91CF910F91FF90EF900C943E03DF915D
:1014C000CF910F91FF90EF9008952F923F924F92FE
:1014D0005F926F927F928F929F92AF92BF92CF92C4
:1014E000DF92EF92FF920F931F93CF93DF93CDB7CD
:1014F000DEB7C65CD1090FB6F894DEBF0FBECDBF14
:101500004C01122F532E7E0121E8E20EF11C202FF8
:10151000C7010E94E004CE010196CF53DF4F9983AB
:101520008883C15CD040CD53DF4FF982E882C35C31
:10153000D040C02E002E000CDD08602F812F952D8D
:101540000E9442057601A4E0EE0CFF1CAA95E1F78B
:10155000E81AF90A5701F7FE03C037E0A30EB11CE1
:10156000E3E0B594A794EA95E1F7F8E06F2E712CCB
:10157000C701B3010E94214DB82E6A2DCE018F5BA9
:101580009F4F0E945B028A2DAA0C990B1B1424F515
:10159000412FE1E4F0E0EC0FFD1FE80FF91FA12F50
:1015A000B52D50E06B187108B7FC73948A2F841B1B
:1015B0008017E8F48D9190E09C010B2C01C0220F64
:1015C0000A94EAF7252B2193062C02C0959587955E
:1015D0000A94E2F7582FEACF402F612F752DE1E4EE
:1015E000F0E0EC0FFD1F8E0F9F1F0E94820236015C
:1015F000660C771C11E044244394512C5601F1E011
:10160000AF1AB10821E430E02C0F3D1FA20EB31E2B
:10161000C20ED31E1601F7FC65C090E080E0212FBA
:1016200030E0F901EE0FFF1F41EC50E04C0F5D1F61
:101630004E0F5F1FCB53DF4F59834883C55CD040AB
:10164000B201621B730B660F771FE1ECF0E0EC0F49
:10165000FD1F6E0F7F1F292F092E000C330B26153F
:10166000370524F5CB53DF4FE881F981C55CD040C5
:10167000A081B181A20FB31F4C91A1E4B0E0AC0FE7
:10168000BD1FA20FB31F5C91A42FA51BA81B4A1757
:1016900021F081E04A1708F080E0FB014081518190
:1016A000240F351FF901A0839F5FD5CF91E0181358
:1016B00090E0192F602FCE018F5B9F4F0E94CF02C9
:1016C000F6018081F0E88F9FC0011124F50190811F
:1016D000892B8083602FC1010E94CF02F1E0EF1AB5
:1016E000F10899CFFE01EF53FF4FE10FF11DE10F1C
:1016F000F11D60817181402FC4010E948202CA5392
:10170000DF4F0FB6F894DEBF0FBECDBFDF91CF9194
:101710001F910F91FF90EF90DF90CF90BF90AF900F
:101720009F908F907F906F905F904F903F902F9001
:101730000895EF92FF920F931F93CF93DF93CDB74E
:10174000DEB7C054D1090FB6F894DEBF0FBECDBFCF
:101750007C018901F9012081CE0101960E94E004FB
:10176000F801E655FF4F0190F081E02DBE016F5F5B
:101770007F4FC7010995C05CDF4F0FB6F894DEBFFD
:101780000FBECDBFDF91CF911F910F91FF90EF90D2
:1017900008959A01AB010C94990B6F927F928F92EE
:1017A0009F92AF92BF92CF92DF92EF92FF920F93F0
:1017B0001F93CF93DF93CDB7DEB7C054D1090FB6D7
:1017C000F894DEBF0FBECDBF6C013B017A01490129
:1017D000F9011081612FCA010E941C058111ABC063
:1017E000A401B301CE0181960E94C90B9401AE0100
:1017F0004F5D5F4FB601CE0101960E94990BA40187
:10180000BE016F5D7F4FCB010E94C90B9401A70100
:10181000B301C3010E94990BA401B701C7010E9443
:10182000C90B5401F4E0AF0EB11C012F9501A701C3
:10183000B601C6010E94240A9501A701B701C7019C
:101840000E94240A9501A701B601C7010E94480A17
:101850009401A701B601C6010E94990B9501A6014A
:10186000B601C7010E94240A9501A701B601C6016D
:101870000E94240AF601808180FF1AC0212FA50151
:10188000B601C6010E943E03082F612FC6010E94C7
:10189000CF02E12F012E000CFF0B3197EC0DFD1D47
:1018A00020E8029FC00111240081082B008304C09E
:1018B000612FC6010E94CF02A401B601C7010E9498
:1018C000C90B012F9501AE014F5F5F4FB701C701F3
:1018D0000E94480A9501AE014F5F5F4FB701C701F3
:1018E0000E94480A9501A701BE016F5F7F4FCB019F
:1018F0000E94480A9401AE014F5F5F4FB601C601D6
:101900000E94990B9501AE014F5D5F4FB601CA0170
:101910000E94480A412FB701C6010E948202412F4E
:10192000B301C7010E948202412FBE016F5D7F4F4C
:10193000C3010E948202C05CDF4F0FB6F894DEBF85
:101940000FBECDBFDF91CF911F910F91FF90EF9010
:10195000DF90CF90BF90AF909F908F907F906F90CF
:1019600008956F927F928F929F92AF92BF92CF9283
:10197000DF92EF92FF920F931F93CF93DF93CDB738
:10198000DEB7A0970FB6F894DEBF0FBECDBF7C01C7
:101990004B016A01CE0101963C0180E2F3011192F4
:1019A0008A95E9F783E08983FA011081C7010E94D3
:1019B000C90B5601F4E0AF0EB11C012F9501A30134
:1019C000B701C7010E94480A9601A401B701C701E7
:1019D0000E94990BA6014C575F4F9501B701C701B3
:1019E0000E94240AA0960FB6F894DEBF0FBECDBFAA
:1019F000DF91CF911F910F91FF90EF90DF90CF90EB
:101A0000BF90AF909F908F907F906F9008956F924E
:101A10007F929F92AF92BF92CF92DF92EF92FF920E
:101A20000F931F93CF93DF93CDB7DEB7C054D10987
:101A30000FB6F894DEBF0FBECDBF3C015B0190E254
:101A40007E0181E2E80EF11CF701892F11928A953F
:101A5000E9F781E089A38E010F5F1F4FF801119212
:101A60009A95E9F78983FB0190806C5F7F4F292D60
:101A7000A701C7010E943E03692DC7010E944205CC
:101A800001976C0182E0C816D104ACF0A501B80141
:101A9000C8010E94C90BB601C7010E942E05882308
:101AA00031F09501A301B801C8010E94990BF1E042
:101AB000CF1AD108E7CF492DB801C3010E94820295
:101AC000C05CDF4F0FB6F894DEBF0FBECDBFDF9115
:101AD000CF911F910F91FF90EF90DF90CF90BF902B
:101AE000AF909F907F906F900895DF92EF92FF925A
:101AF0000F931F93CF93DF93CDB7DEB768970FB6E1
:101B0000F894DEBF0FBECDBF7C018B0148E10E947F
:101B10008202B801685E7F4F48E1CE0101960E94C3
:101B2000820228E1AE014F5F5F4FB701C7010E94FB
:101B30003E03D82E18861F821E821D821C821B82A5
:101B40001A821982F801808D8987818D8A87828D1A
:101B50008B87838D8C87848D8D87858D8E87868DF1
:101B60008F87878D888B80A1898B81A18A8B82A1A9
:101B70008B8B83A18C8B84A18D8B85A18E8B86A171
:101B80008F8B87A1888F28E1AE014F5F5F4FB70130
:101B9000C7010E943E03D80EF80180A5898789837A
:101BA00081A58A878A8382A58B878B8383A58C876F
:101BB0008C8384A58D878D8385A58E878E8386A54E
:101BC0008F878F8387A5888B8887188E1F8A1E8AA8
:101BD0001D8A1C8A1B8A1A8A198A28E1AE014F5F66
:101BE0005F4FB701C7010E943E031D2D180F11233F
:101BF00049F028E144E853E0B701C7010E940F040F
:101C0000181BF5CF48E1B70184E893E00E946C050A
:101C1000813079F768960FB6F894DEBF0FBECDBF5E
:101C2000DF91CF911F910F91FF90EF90DF9008957A
:101C30006F927F928F929F92AF92BF92CF92DF92DC
:101C4000EF92FF920F931F93CF93DF93CDB7DEB741
:101C50006C970FB6F894DEBF0FBECDBF3C015B01A1
:101C60006A01490144ED52E0B901CE0101960E949A
:101C7000C90B24ED32E0A801B401C5010E94990B03
:101C80000CE128ED32E0A701BE016F5F7F4FC30179
:101C90000E94240A28ED32E0A501B501C5010E9489
:101CA000240A24ED32E0A701BE016F5F7F4FC60119
:101CB0000E94990B28ED32E0A601B601C6010E94F0
:101CC000240A28ED32E0A601B601C6010E94240ACA
:101CD0006C960FB6F894DEBF0FBECDBFDF91CF91EB
:101CE0001F910F91FF90EF90DF90CF90BF90AF903A
:101CF0009F908F907F906F900895DF92EF92FF9268
:101D00000F931F93CF93DF93CDB7DEB76C970FB6CA
:101D1000F894DEBF0FBECDBF7C018B014CE10E9469
:101D200082021C821B821A82198218861F821E82DE
:101D30001D821C861B861A861986F801848D8D8764
:101D4000858D8E87868D8F87878D888B80A1898BE7
:101D500081A18A8B82A18B8B83A18C8B84A18D8B9B
:101D600085A18E8B86A18F8B87A1888F80A5898F77
:101D700081A58A8F82A58B8F83A58C8F2CE1AE01E4
:101D80004F5F5F4FB701C7010E943E03D82EF80195
:101D900084A58D8785A58E8786A58F8787A5888B47
:101DA00080A9898B81A98A8B82A98B8B83A98C8B33
:101DB00084A98D8B85A98E8B86A98F8B87A9888F07
:101DC0001C8E1B8E1A8E198E2CE1AE014F5F5F4F59
:101DD000B701C7010E943E03D80EF801848D8983A4
:101DE000858D8A83868D8B83878D8C8380A18D835F
:101DF00081A18E8382A18F8383A1888784A1898713
:101E000085A18A8786A18B8787A18C8780A58D87EE
:101E100081A58E8782A58F8783A5888B84A5898BD2
:101E200085A58A8B86A58B8B87A58C8B80A98D8BAE
:101E300081A98E8B82A98F8B83A9888F84A9898F92
:101E400085A98A8F86A98B8F87A98C8F2CE1AE01FB
:101E50004F5F5F4FB701C7010E940F04D81AF80106
:101E600084A5898385A58A8386A58B8387A58C8392
:101E700080A98D8381A98E8382A98F8383A9888776
:101E800084A9898785A98A8786A98B8787A98C8752
:101E9000188A1F861E861D861C8A1B8A1A8A198A22
:101EA000188E1F8A1E8A1D8A1C8E1B8E1A8E198EF2
:101EB0002CE1AE014F5F5F4FB701C7010E940F04D5
:101EC0001D2D181B17FF1BC02CE148ED52E0B70178
:101ED000C7010E943E03180F17FDF6CF13C04CE157
:101EE000B70188ED92E00E946C05813059F02CE139
:101EF00048ED52E0B701C7010E940F04181B1123DF
:101F000071F3F5CF6C960FB6F894DEBF0FBECDBF60
:101F1000DF91CF911F910F91FF90EF90DF90089587
:101F2000CF92DF92FF920F931F93CF93DF93CDB7A2
:101F3000DEB7A0970FB6F894DEBF0FBECDBF6C0121
:101F40008B0140E20E9482021C821B821A8219824B
:101F500018861F821E821D821C861B861A86198681
:101F6000F80184A58D8785A58E8786A58F8787A58F
:101F7000888B80A9898B81A98A8B82A98B8B83A965
:101F80008C8B84A98D8B85A98E8B86A98F8B87A935
:101F9000888F80AD898F81AD8A8F82AD8B8F83AD25
:101FA0008C8F84AD8D8F85AD8E8F86AD8F8F87ADF5
:101FB00088A320E2AE014F5F5F4FBA01CA010E94C1
:101FC0003E03F82E20E2AE014F5F5F4FB601C6011F
:101FD0000E943E03F80EF80180A98D8781A98E87A3
:101FE00082A98F8783A9888B84A9898B85A98A8BED
:101FF00086A98B8B87A98C8B80AD8D8B81AD8E8BC9
:1020000082AD8F8B83AD888F84AD898F85AD8A8FAC
:1020100086AD8B8F87AD8C8F18A21F8E1E8E1D8E66
:1020200020E2AE014F5F5F4FBA01CA010E943E033A
:10203000F80E20E2AE014F5F5F4FB601C6010E946D
:102040003E03F80EF80180A1898381A18A8382A1D1
:102050008B8383A18C8384A18D8385A18E8386A1AC
:102060008F8387A1888780A5898781A58A8782A594
:102070008B8783A58C87188A1F861E861D861C8ADF
:102080001B8A1A8A198A188E1F8A1E8A1D8A80AD99
:10209000898F81AD8A8F82AD8B8F83AD8C8F84AD1C
:1020A0008D8F85AD8E8F86AD8F8F87AD88A320E213
:1020B000AE014F5F5F4FB601C6010E943E03F80EAE
:1020C000F80184A1898385A18A8386A18B8387A156
:1020D0008C8380A58D8381A58E8382A58F8383A524
:1020E000888784A5898785A58A8786A58B8787A504
:1020F0008C8734A93D8725A92E8796A99F8787A914
:10210000888B40AD498B41AD4A8B42AD4B8B43AD83
:102110004C8B44AD4D8B45AD4E8B46AD4F8B47AD93
:10212000488F398F2A8F9B8F8C8F80A18D8F81A1B3
:102130008E8F82A18F8F83A188A320E2AE014F5F93
:102140005F4FB601C6010E943E03F80EF80184A558
:10215000898385A58A8386A58B8387A58C8380A99F
:102160008D8381A98E8382A98F8383A9888784A97F
:10217000898785A98A8786A98B8787A98C87188AEA
:102180001F861E861D861C8A1B8A1A8A198A188E2B
:102190001F8A1E8A1D8A80A1898F81A18A8F82A1B0
:1021A0008B8F83A18C8F80A58D8F81A58E8F82A52B
:1021B0008F8F83A588A320E2AE014F5F5F4FB601EA
:1021C000C6010E940F04F81AF80180A9898381A929
:1021D0008A8382A98B8383A98C8384A98D8385A913
:1021E0008E8386A98F8387A9888780AD898781ADF3
:1021F0008A8782AD8B8783AD8C8784AD8D8785ADD3
:102200008E8786AD8F8787AD888B1C8A1B8A1A8A3A
:10221000198A188E1F8A1E8A1D8A84A1898F85A11A
:102220008A8F86A18B8F87A18C8F84A58D8F85A5A2
:102230008E8F86A58F8F87A588A320E2AE014F5F82
:102240005F4FB601C6010E940F04F81AF80184A975
:10225000898385A98A8386A98B8387A98C8380AD8E
:102260008D8381AD8E8382AD8F8383AD888784AD6E
:10227000898785AD8A8786AD8B8787AD8C8780A15E
:102280008D8781A18E8782A18F8783A1888B84A16E
:10229000898B85A18A8B86A18B8B87A18C8B80A54E
:1022A0008D8B81A58E8B82A58F8B83A5888F1C8EAD
:1022B0001B8E1A8E198E80A98D8F81A98E8F82A96F
:1022C0008F8F83A988A320E2AE014F5F5F4FB601D5
:1022D000C6010E940F04F81AF80180AD898381AD10
:1022E0008A8382AD8B8383AD8C8384AD8D8385ADF2
:1022F0008E8386AD8F8387AD88871C861B861A8662
:10230000198684A18D8785A18E8786A18F8787A155
:10231000888B80A5898B81A58A8B82A58B8B83A5D1
:102320008C8B84A58D8B85A58E8B86A58F8B87A5A1
:10233000888F1C8E1B8E1A8E198E84A98D8F85A96D
:102340008E8F86A98F8F87A988A320E2AE014F5F69
:102350005F4FB601C6010E940F04F81AF7FE1BC0BA
:1023600020E24CE252E0B601C6010E943E03F80EA4
:10237000F7FCF6CF13C040E2B6018CE292E00E9477
:102380006C05813059F020E24CE252E0B601C60102
:102390000E940F04F81AFF2071F3F5CFA0960FB634
:1023A000F894DEBF0FBECDBFDF91CF911F910F918B
:1023B000FF90DF90CF900895EF92FF920F931F93BD
:1023C000CF93DF937C018B01EA010E94C90B9E0130
:1023D000A801B701C7010E94990B9E012C5F3F4FD6
:1023E000AE014C575F4F00E2B701C7010E94240ABB
:1023F000DF91CF911F910F91FF90EF900895AF92D1
:10240000BF92CF92DF92EF92FF920F931F93CF93E1
:10241000DF93CDB7DEB7A0970FB6F894DEBF0FBE3F
:10242000CDBF5C017B016A018901A901B601CE0122
:1024300001960E94C90B9801AE014F5F5F4FB50135
:10244000C5010E94990B9801A601BE016F5F7F4FE5
:10245000CB010E94990B9801AE014F5F5F4FB7010E
:10246000C7010E94990BA0960FB6F894DEBF0FBE6D
:10247000CDBFDF91CF911F910F91FF90EF90DF9033
:10248000CF90BF90AF9008954F925F926F927F92DE
:102490008F929F92AF92BF92CF92DF92EF92FF9274
:1024A0000F931F93CF93DF93CDB7DEB7A0970FB6EF
:1024B000F894DEBF0FBECDBF3C012B017A0159015C
:1024C0006801F80110814601F4E08F0E911C012F84
:1024D0009401AC01B701CE0101960E94480AA60101
:1024E000BE016F5F7F4FCB010E94C90B9601AE0109
:1024F0004F5F5F4FB301C3010E94990B9601AE017C
:102500004F5F5F4FB701C7010E94990B9401A20171
:10251000B501C5010E94480AA601B501CE01019688
:102520000E94C90B9401A301BE016F5F7F4FCB01D5
:102530000E94480A9401A701BE016F5F7F4FCB0143
:102540000E94480A9401A301B701C7010E94480AEA
:102550009601A701B201C2010E94990B9401AE013C
:102560004F5F5F4FB301C7010E94480A9601A70160
:10257000B501C5010E94990B9401A201B501C501E5
:102580000E94480A412FBE016F5F7F4FC7010E9422
:102590008202A0960FB6F894DEBF0FBECDBFDF91CA
:1025A000CF911F910F91FF90EF90DF90CF90BF9050
:1025B000AF909F908F907F906F905F904F90089515
:1025C0004F925F926F927F928F929F92AF92BF9243
:1025D000CF92DF92EF92FF920F931F93CF93DF93EF
:1025E000CDB7DEB7C056D1090FB6F894DEBF0FBE27
:1025F000CDBF4C012B015A0139016801F80110814E
:102600007601F4E0EF0EF11C012F9701AC01B5014A
:10261000CE018F5B9F4F0E94480AA601BE016F5BEF
:102620007F4FCB010E94C90B9601AE014F5B5F4FFC
:10263000B401C4010E94990B9601AE014F5B5F4F3C
:10264000B501C5010E94990B9701A201B301CE010A
:102650008F5B9F4F0E94240A9701A201B301C3011F
:102660000E94480A9701A401B501CE0181960E94FB
:10267000480A9601AE014F5D5F4FB201C2010E9450
:10268000990B9701A501B401CE0181960E94240AFD
:10269000A601B301C5010E94C90B9701AE014F5DB0
:1026A0005F4FB501C5010E94480A9701A501B40119
:1026B000CE0101960E94480A9601AE014F5F5F4F1E
:1026C000B301C3010E94990B9701A201B301C30199
:1026D0000E94480AA601BE016F5B7F4FCE010196A2
:1026E0000E94C90B9701AE014F5D5F4FBE016F5F46
:1026F0007F4FCB010E94480A9701A401BE016F5F82
:102700007F4FCE0181960E94480A9601AE014F5B31
:102710005F4FBE016F5D7F4FCB010E94990B970108
:10272000A201BE016F5D7F4FC2010E94480A412F86
:10273000BE016F5F7F4FC4010E948202C05ADF4F0B
:102740000FB6F894DEBF0FBECDBFDF91CF911F91C2
:102750000F91FF90EF90DF90CF90BF90AF909F9040
:102760008F907F906F905F904F900895AF92BF923F
:10277000CF92DF92EF92FF920F931F93CF93DF934D
:102780006B015A01F90102811381E8012796D7FDF7
:10279000279643E0D595C7954A95E1F77901F4E28C
:1027A000EF0EF11C2C2FA701BC01C6010E943E03B5
:1027B00081110FC038E0C302C001112408171907A6
:1027C00054F4B801C6010E942E0511E0811104C025
:1027D00002C011E001C010E02C2FA701B601C50115
:1027E0000E943E03812FDF91CF911F910F91FF90A7
:1027F000EF90DF90CF90BF90AF9008959F92AF92EF
:10280000BF92CF92DF92EF92FF920F931F93CF93DD
:10281000DF938C016B01D42F642FC6010E94420507
:102820002091720930917309232B19F480E090E014
:102830003CC0ED2E0D2E000CFF08970143E0220F47
:10284000331F4A95E1F7281B390B8FEF90E002C048
:10285000959587952A95E2F7C82F50E4952E570154
:1028600081E0A81AB108A00EB11EE0917209F091A2
:102870007309B701C8010995892BC1F2F50180815F
:102880008C2380836D2FC8010E941C05882321F0B2
:102890009A949110EACFCACF4D2FB801C6010E9479
:1028A000F5098130A9F781E090E0DF91CF911F9188
:1028B0000F91FF90EF90DF90CF90BF90AF909F90DF
:1028C0000895CF93DF93DC0190E0EB012197292F4E
:1028D000092E000C330B2617370764F4FE01E21BA8
:1028E000F30BE40FF51F8081FD01E20FF31F8083DE
:1028F0009F5FEDCFDF91CF9108958F929F92AF921E
:10290000BF92CF92DF92EF92FF920F931F93CF93DC
:10291000DF937C014B016901F901828193818C0174
:10292000095F1F4F17FF02C0095F1F4F93E0159506
:1029300007959A95E1F7C02FD12F5E014C175D07DF
:1029400008F45A01602FC7010E945B02A401B5017F
:10295000C7010E94611483E0AA0CBB1C8A95E1F7B1
:10296000F601828193818A159B05D8F5A81AB90AC8
:10297000CE0DDF1D60E028E030E02A193B09EC169F
:10298000FD0698F49A91892F90E0AC010A2C02C0C0
:10299000559547950A94E2F7462B4883022E01C0CD
:1029A000880F0A94EAF7682FEACFF4E2CF0ED11C21
:1029B000402FB701C6010E946C05813091F0202F95
:1029C000A601B701C701DF91CF911F910F91FF9031
:1029D000EF90DF90CF90BF90AF909F908F900C942E
:1029E0000F04DF91CF911F910F91FF90EF90DF9037
:1029F000CF90BF90AF909F908F9008950F931F93AB
:102A0000CF93DF93EC0108851985000F111F8A858C
:102A10009B85080F191F9801DB0146E3FD01E61BAA
:102A2000F70B88859985E817F90730F48D9184278D
:102A3000F90181939F01F2CFE00FF11F46E32E8150
:102A40003F81CF01801B910B8217930710F44193B4
:102A5000F6CFE881F981CE0109954E815F81EA8147
:102A6000FB81B801CE01DF91CF911F910F910994A5
:102A7000DC011296ED91FC9113970994EF92FF926D
:102A80000F931F93CF93DF93EC017A01088519858B
:102A9000000F111F8A859B85080F191F9801DB0104
:102AA0004CE5FD01E61BF70B88859985E817F907CA
:102AB00030F48D918427F90181939F01F2CFE00FCB
:102AC000F11F4CE52E813F81CF01801B910B8217B6
:102AD000930710F44193F6CFEC81FD81B701CE014D
:102AE0000995E881F981CE0109954E815F81EA81DE
:102AF000FB81B801CE01099548855985EA81FB81A2
:102B0000B701CE010995EC81FD81B701CE01DF91BE
:102B1000CF911F910F91FF90EF900994EF92FF9248
:102B20000F931F93CF93DF93EC018B017A010E94E7
:102B3000FE1448855985B701CE010E943815A701BA
:102B4000B801CE01DF91CF911F910F91FF90EF90CF
:102B50000C943E150F931F93CF93DF938C01C42FDA
:102B6000FC01808180FF08C0242FAB01B801C8019F
:102B70000E943E03D82F01C0D0E06C2FC8010E94F4
:102B8000CF02DD2349F0EC2FCC0FFF0B3197E00F84
:102B9000F11F808180688083DF91CF911F910F9119
:102BA0000895AF92BF92CF92DF92EF92FF921F9360
:102BB000CF93DF93CDB7DEB7C058D1090FB6F894E5
:102BC000DEBF0FBECDBF6C015B017A01122F622FF9
:102BD000C5010E941C05882329F0612FC6010E94AF
:102BE0005B02A9C0412FB501CE018F599F4F0E94B2
:102BF0008202412FB701CE018F5B9F4F0E9482025C
:102C0000612FCE0181960E945B0281E089A3612F32
:102C1000CE0101960E945B02412FBE016F5B7F4F88
:102C2000CE018F599F4F0E946C05882309F47CC008
:102C3000A2969FADA29790FD07C0612FCE018F593C
:102C40009F4F0E94CF023AC022969FAD229790FDDF
:102C500007C0612FCE018F5B9F4F0E94CF025DC0E6
:102C6000212FAE0118167CF54F5B5F4FBE016F59E7
:102C70007F4FCB010E940F04612FCE018F599F4FD0
:102C80000E94CF02412FBE016F5F7F4FCE01819620
:102C90000E946C0587FF08C0212FA701BE016F5D50
:102CA0007F4FCB010E943E03212FAE014F5F5F4F4C
:102CB000BE016F5D7F4FCB010E940F04412FB70112
:102CC000CE0181962EC04F595F4FBE016F5B7F4F83
:102CD000CB010E940F04612FCE018F5B9F4F0E949A
:102CE000CF02412FBE016F5D7F4FCE0101960E9442
:102CF0006C0587FF08C0212FA701BE016F5F7F4FC2
:102D0000CB010E943E03212FAE014F5D5F4FBE01FC
:102D10006F5F7F4FCB010E940F04412FB701CE019F
:102D200001960E94AA1578CF412FBE016F5D7F4F9B
:102D3000C6010E948202C058DF4F0FB6F894DEBF72
:102D40000FBECDBFDF91CF911F91FF90EF90DF902D
:102D5000CF90BF90AF9008952F923F924F925F9285
:102D60006F927F928F929F92AF92BF92CF92DF929B
:102D7000EF92FF920F931F93CF93DF93CDB7DEB700
:102D8000C05ED1090FB6F894DEBF0FBECDBF5C01A7
:102D90006E0185E5C80ED11C8CE1F60111928A9571
:102DA000E9F781E0F60180834CE1B501CE018F584F
:102DB0009F4F0E9482024E01F9E38F0E911C0CE19D
:102DC00028ED32E0A501B901C4010E94480A27E0BC
:102DD000322E22242394582C492C622C022C000CD5
:102DE00077084CE1BE016F587F4FCE018B539F4F48
:102DF0000E9482024CE1B601CE0187559F4F0E948E
:102E000082024CE1652D742DCE0183579F4F0E94A5
:102E1000820288248394912C681479049CF0CE015A
:102E200083579F4F7C018E0107551F4F9E012B53E7
:102E30003F4FAC01B801C9010E94180E9FEF891ADB
:102E4000990AEACF24ED32E0A601BE0167557F4F13
:102E5000CE014D960E94990B24ED32E0A501BE01F2
:102E6000635E7F4FCB010E94990B0CE128ED32E0AD
:102E7000AE01435E5F4FB901CA010E94480A24EDCA
:102E800032E0AE014F585F4FBE016B537F4FCE0112
:102E900001960E94990B28ED32E0AE01435E5F4F30
:102EA000BE016F5F7F4FCB010E94240A24ED32E008
:102EB000A601BE016B537F4FCE014D960E94990B28
:102EC00024ED32E0AE0147555F4FBE016F587F4F92
:102ED000CA010E94990B28ED32E0AE01435E5F4FBC
:102EE000BE0167557F4FCB010E94240A44ED52E09A
:102EF000BE0167557F4FCE0183579F4F0E94C90B7C
:102F000024ED32E0A501BE0163577F4FCB010E9443
:102F1000990B28ED32E0AE0143575F4FB901CA016A
:102F20000E94480A4CE1BE016F5F7F4FCE018B5378
:102F30009F4F0E9482024CE1BE016B537F4FCE0136
:102F40008F589F4F0E9482024CE1BE0167557F4F10
:102F5000C6010E9482024CE1BE0163577F4F852D5E
:102F6000942D0E948202220C3A94311036CFFE0139
:102F7000E357FF4F7F018E0107551F4F9E012B53D3
:102F80003F4FAE01435E5F4F652D742DCE0101961C
:102F90000E94180E8FE5C82ED12C4CE1BE016F5F48
:102FA0007F4FCE018B539F4F0E9482024CE1652DD3
:102FB000742DCE0187559F4F0E9482024CE1BE01C5
:102FC000635E7F4FCE0183579F4F0E948202CE01E6
:102FD00083579F4F7C018E0107551F4F9E012B5336
:102FE0003F4FAE01435E5F4F652D742D8C589109A4
:102FF0000E94180E6CE1CE0101960E941C05811101
:1030000004C091E0C91AD10841F62CE148ED52E024
:10301000BE0167557F4FCE014D960E94D11524ED1C
:1030200032E0AE01435E5F4FBE016B537F4FC5017F
:103030000E94990BC052DF4F0FB6F894DEBF0FBE4F
:10304000CDBFDF91CF911F910F91FF90EF90DF9057
:10305000CF90BF90AF909F908F907F906F905F9038
:103060004F903F902F9008953F924F925F926F92B2
:103070007F928F929F92AF92BF92CF92DF92EF9208
:10308000FF920F931F93CF93DF93CDB7DEB7CC5A48
:10309000D1090FB6F894DEBF0FBECDBFC755DF4FC5
:1030A00099838883C95AD040CD55DF4F798368838F
:1030B000C35AD040C555DF4F59834883CB5AD040BF
:1030C00069012701F7013080432D81E490E08C0FE6
:1030D0009D1F80960E948202232D032C000C330B2F
:1030E000CB55DF4F39832883C55AD040CD55DF4FAC
:1030F00088819981C35AD040820F931FC955DF4FF1
:1031000099838883C75AD040432DBC01CE01819654
:103110000E948202F701F080C114D10441F04F2DCA
:10312000B601CE018F579F4F0E9482020CC06F2DB7
:10313000CE018F579F4F0E945B0281E0CF57DF4F38
:103140008883C158D040B1E4CB2ED12CCC0EDD1EEB
:10315000F0E2CF0ED11C4F2DB601CE018F5B9F4FF9
:103160000E9482024F2DBE016F5D7F4F9E012F5F37
:103170003F4F7901C9010E9482029201AE014F576F
:103180005F4FBE016F5D7F4FC6010E94FF11F201CC
:10319000EC55FF4F0190F081E02D9201AE014F57A9
:1031A0005F4FBE016F5D7F4FC60109959201AE0171
:1031B0004F575F4FB701CE018F5B9F4F0E94FF11AA
:1031C000580132E0A31AB1081A141B040CF046C0CF
:1031D000B501C555DF4F88819981CB5AD0400E94F7
:1031E0002E0521E030E0882311F020E030E03901A5
:1031F00065E0660C771C6A95E1F788248394912C2E
:103200008C0E9D1E860C971C81E490E08C0F9D1FF8
:10321000680E791EEE24E394F12CE21AF30AF5E02D
:10322000EE0CFF1CFA95E1F7CC24C394D12CCC0E04
:10323000DD1ECE0CDF1CE80EF91E82019401A301F5
:10324000B601C7010E94E0129601A701B401C301B3
:103250000E94441291E0A91AB108B6CFC555DF4FBC
:10326000E881F981CB5AD040808180958170CF551B
:10327000DF4F8883C15AD040CE55DF4F1882C25AE3
:10328000D040CF55DF4FC880D980C15AD04085E0AB
:10329000CC0CDD1C8A95E1F788248394912C8C0E4C
:1032A0009D1E8C0C9D1C21E430E02C0F3D1FC20E96
:1032B000D31E81E090E07C01CF55DF4FE881F9819A
:1032C000C15AD040EE1AFF0A45E0EE0CFF1C4A95A9
:1032D000E1F7AA24A394B12CAC0EBD1EAE0CBF1C0A
:1032E000E20EF31E82019401A601B501C7010E94FE
:1032F000E0123201F4E06F0E711C61E470E06C0FBB
:103300007D1F605E7F4F032D9301AE014F5B5F4FCA
:10331000CE018F579F4F0E94480A9201A501BE011E
:103320006F577F4FCB010E94990B9201CD55DF4F14
:1033300048815981C35AD040BE016F577F4FCB019E
:103340000E94990B232DA301BE016F577F4FCB0124
:103350000E94D1159201C955DF4F48815981C75A42
:10336000D040BE016F577F4FCB010E94990B920155
:10337000A701BE016F577F4FCB010E94990B8201BD
:103380009501A701B401C6010E9444129201AE0149
:103390004F575F4FBE016F5F7F4FCE018F5B9F4FD7
:1033A0000E94FF11432DBE016F5B7F4FC755DF4F5A
:1033B00088819981C95AD0400E948202432DBE0162
:1033C0006F5F7F4FC755DF4F88819981C95AD040C1
:1033D000CB55DF4F28813981C55AD040820F931FCA
:1033E0000E948202C455DF4F0FB6F894DEBF0FBEB5
:1033F000CDBFDF91CF911F910F91FF90EF90DF90A4
:10340000CF90BF90AF909F908F907F906F905F9084
:103410004F903F9008958F929F92AF92BF92CF921C
:10342000DF92EF92FF920F931F93CF93DF93CDB76D
:10343000DEB7C454D1090FB6F894DEBF0FBECDBFBE
:103440004C01CB016A01BE016F5D7F4F23967FAFB8
:103450006EAF2397AE014F5F5F4F25965FAF4EAFC4
:10346000259796010E94B613F82E809172099091CB
:103470007309892BA1F0FE01EF5BFF4FEF0DF11DEA
:10348000EF0DF11DA080B180F6014081B6016C5FA7
:103490007F4FC5010E94FE13892B19F427C0A12C70
:1034A000B12CF601028113810F5F1F4F81E090E084
:1034B000FF2011F080E090E0880F991FE1E4F0E038
:1034C000EC0FFD1FE80FF91F40815181B6016C5BC5
:1034D0007F4F76019501C4010E943418F601608186
:1034E000660FC4010E941C0591E0811190E0892FB4
:1034F000CC5BDF4F0FB6F894DEBF0FBECDBFDF91C0
:10350000CF911F910F91FF90EF90DF90CF90BF90E0
:10351000AF909F908F9008952F923F924F925F921D
:103520006F927F928F929F92AF92BF92CF92DF92D3
:10353000EF92FF920F931F93CF93DF93CDB7DEB738
:10354000CD58D1090FB6F894DEBF0FBECDBFC85716
:10355000DF4F99838883C858D040C657DF4F79839F
:103560006883CA58D040C457DF4F59834883CC582A
:10357000D0406901CA57DF4F19830883C658D0402D
:1035800017014E0181E6880E911CCF57DF4F9982BB
:103590008882C158D0403E01E1E46E0E711CCD57C7
:1035A000DF4F79826882C358D040F701F081CB5752
:1035B000DF4FF883C558D0406F2FC9010E941C050A
:1035C000882319F080E090E01FC1F7010281138188
:1035D000C801079697FD07962C01E3E055944794A0
:1035E000EA95E1F75101F4E2AF0EB11C442DB601AA
:1035F000C5010E94F509813029F79101A301B401A9
:10360000C6010E94B613F82E809172099091730939
:10361000892BB9F0FE01EF57FF4FEF0DF11DEF0DB4
:10362000F11D60807180CB57DF4F4881C558D04075
:10363000B1016C5F7F4FC3010E94FE13892B19F407
:10364000C1CF612C712C0F5F1F4F81E090E0FF20F4
:1036500011F080E090E0880F991FE1E8F0E0EC0FB6
:10366000FD1FE80FF91F4081518171019301B101E4
:103670006C5B7F4FCE0101960E943418CB57DF4F11
:103680006881C558D040CE0101960E941C05811169
:1036900099CF8091720990917309892B59F4642D07
:1036A000CE018F599F4F0E945B0281E0A2968FAF9F
:1036B000A2970AC0442DB501CE018F599F4F0E9499
:1036C000FE13892B09F47ECF042D9501A401B601C8
:1036D000C6010E94650A242DA501B601C6010E94FB
:1036E000D1159501A401B601C6010E94650AF10138
:1036F0006181062E000C770BAE014F5F5F4FCA57FA
:10370000DF4F88819981C658D0400E946114F10131
:1037100082819381BC01695F7F4F77FF02C0695F3F
:103720007F4F83E0759567958A95E1F7C857DF4F1E
:1037300048815981C858D040C4010E946114E1E415
:10374000F0E0EC0FFD1FE40DF11D47FCFA953197F9
:103750001082CB57DF4F4881C558D040BE016F5F04
:103760007F4FCE018F5B9F4F0E948202042D9501F7
:10377000AE014F5B5F4FB401CA010E94650A91011F
:10378000C457DF4F48815981CC58D040C657DF4FCE
:1037900068817981CA58D040C4010E947D14950186
:1037A000AE014F5B5F4FB401CA010E94240A95012C
:1037B000A601BE016F5B7F4FCB010E94650A642D9D
:1037C000CE018F5B9F4F0E944205F1012181022EA5
:1037D000000C330BA90163E0440F551F6A95E1F714
:1037E000481759070CF4EECEAE014F5B5F4FB9019D
:1037F000CA57DF4F88819981C658D040820F931FE6
:103800000E94611481E090E0C357DF4F0FB6F89437
:10381000DEBF0FBECDBFDF91CF911F910F91FF9003
:10382000EF90DF90CF90BF90AF909F908F907F9060
:103830006F905F904F903F902F9008958F929F923E
:10384000AF92BF92CF92DF92EF92FF920F931F93AE
:10385000CF93DF93CDB7DEB7C054D1090FB6F8943C
:10386000DEBF0FBECDBF6C017B014A01590160E292
:10387000CA010E941C0581117CC0A501B701CE01BF
:1038800001960E94C90B9501AE014F5F5F4FB601D3
:10389000CE0181960E94990BA501B601C6010E9436
:1038A000C90BA501BE016F5F7F4FCB010E94C90B01
:1038B0009501A401B701C4010E94990B450124E0C0
:1038C000820E911C00E29401A601B601C7010E947C
:1038D000240A9401A601B701C7010E94240AF70136
:1038E000808180FF14C020E2A401B701C7010E94BB
:1038F0003E03182F60E2C7010E94CF02F0E81F9F2D
:10390000C0011124F701978D892B878F04C060E2D5
:10391000C7010E94CF02A501B701C6010E94C90BD1
:1039200000E29401AE014F5D5F4FB601C6010E94F7
:10393000480A9401AE014F5D5F4FB601C6010E9477
:10394000480A9401A601BE016F5D7F4FCB010E9422
:10395000480A9501AE014F5D5F4FB701C7010E9454
:10396000990B9401AE014F5F5F4FB701C7010E94F1
:10397000480AC05CDF4F0FB6F894DEBF0FBECDBF64
:10398000DF91CF911F910F91FF90EF90DF90CF903B
:10399000BF90AF909F908F900895909373098093FC
:1039A0007209089580917209909173090895FC013C
:1039B00022813381C901079697FD079623E09595EB
:1039C00087952A95E1F70895FC018181880F990B6D
:1039D000089588ED94E0089580E893E0089584EDDB
:1039E00092E0089588E292E008958CE294E00895D0
:1039F0009F92AF92BF92CF92DF92EF92FF920F937E
:103A00001F93CF93DF93CDB7DEB7C056D1090FB662
:103A1000F894DEBF0FBECDBF7C016B018A0120E4AC
:103A2000922E5A0184E2A80EB11CF8018281938182
:103A3000AC01495F5F4F57FF02C0495F5F4F93E0A2
:103A4000559547959A95E1F7B501CE018F5B9F4F4C
:103A50000E94FE13892B19F480E090E044C0A80175
:103A6000BE016F5B7F4FCE0101960E940B1A882327
:103A7000B1F1F80182819381BC01695F7F4F77FFCB
:103A800002C0695F7F4F83E0759567958A95E1F77E
:103A9000AE014F5B5F4FC6010E946114F801618166
:103AA000062E000C770BAE014F5F5F4FC7010E94DF
:103AB0006114F8018181908141E050E04C0F5D1F5D
:103AC000490F511D97FD5A95082E000C990BBC010A
:103AD0008E0D9F1D0E94611481E090E004C09A94B5
:103AE0009110A3CFB9CFC05ADF4F0FB6F894DEBF05
:103AF0000FBECDBFDF91CF911F910F91FF90EF903F
:103B0000DF90CF90BF90AF909F9008955F926F929B
:103B10007F928F929F92AF92BF92CF92DF92EF925D
:103B2000FF920F931F93CF93DF93CDB7DEB7C458A7
:103B3000D1090FB6F894DEBF0FBECDBF7C013A01AC
:103B400069018E010F591F4FCF57DF4F198308832B
:103B5000C158D0404E0181E4880E911CCD57DF4FF3
:103B600099828882C358D040F9015080A180228177
:103B70003381C901079697FD079653E09595879580
:103B80005A95E1F7AB01BC01C8010E9461140A2CEF
:103B9000000CBB08A701B501CE0101960E9461147B
:103BA000A7014A0D5B1DB50181E090E08C0F9D1FC0
:103BB000850D911D57FC9A950E9461149601A401F0
:103BC000B801C8010E94B613182F80917209909114
:103BD0007309892B99F0FE01EF57FF4FE10FF11D9B
:103BE000E10FF11D80809180452DB6016C5F7F4F04
:103BF000C4010E94FE13009719F434C0812C912C4B
:103C0000F601228133812F5F3F4F81E090E0112345
:103C100011F080E090E0880F991FE1E8F0E0EC0FF0
:103C2000FD1FE80FF91F4081518176018901940140
:103C3000BE016F5F7F4FCB010E943418AE014F5F12
:103C40005F4FB501C3010E946114F6016081660FE8
:103C5000CE0101960E941C0531E020E0811130E088
:103C6000832F922FCC57DF4F0FB6F894DEBF0FBED5
:103C7000CDBFDF91CF911F910F91FF90EF90DF901B
:103C8000CF90BF90AF909F908F907F906F905F90FC
:103C90000895CF93DF93DC0190E0EA01E9819E175C
:103CA00074F4292F092E000C330BFD01E20FF31FD2
:103CB0008081FB01E20FF31F81839F5FEECFEE0F48
:103CC000FF0BEA0FFB1F3197808181708E5FFB0134
:103CD0008083DF91CF910895AF92BF92CF92DF9210
:103CE000EF92FF920F931F93CF93DF93CDB7DEB781
:103CF000C054D1090FB6F894DEBF0FBECDBF5C0132
:103D00006B018A01FA018081EE24E394F12CEC0E20
:103D1000FD1EE80EF11C87FDFA94A5014F5F5F4F71
:103D20006181062E000C770BCE0101960E94611472
:103D3000F801E855FF4F0190F081E02DA801BE0188
:103D40006F5F7F4FC7010995F801EA55FF4F01905A
:103D5000F081E02DB801C7010995F7019081F501C7
:103D60008081892780FF09C0F8012081A701B8015F
:103D70006C5F7F4FC7010E940F04F8016181062E1E
:103D8000000C770BAE014F5F5F4FC6010E946114BC
:103D9000F8018181082E000C990BA701BC018C0D44
:103DA0009D1D0E946114C05CDF4F0FB6F894DEBF0A
:103DB0000FBECDBFDF91CF911F910F91FF90EF907C
:103DC000DF90CF90BF90AF900895AF92BF92CF9207
:103DD000DF92EF92FF920F931F93CF93DF93CDB7B4
:103DE000DEB7C058D1090FB6F894DEBF0FBECDBF05
:103DF0008C017B01FB016181062E000C770BAC016D
:103E0000CE0101960E946114F7016181062E000C1B
:103E1000770BA801460F571F808121E030E02C0F5F
:103E20003D1F280F311D87FD3A95C9010E9461147D
:103E3000F7011081612F660FCE0101960E941C05CB
:103E4000811153C05701F4E0AF0EB11C412FBE01E8
:103E50006F5F7F4FC5010E946C05813009F045C03E
:103E6000CC24C394D12CCC0EDD1EC10ED11C17FD69
:103E7000DA94412FB601C5010E946C058130A9F585
:103E8000A701B601CE018F599F4F0E94C90BF701C0
:103E9000E855FF4F0190F081E02DA701BE016F5F53
:103EA0007F4FCE018F5B9F4F0995115020E017FD8A
:103EB00016C0812F012E000C990BE1E6F0E0EC0F0B
:103EC000FD1FE80FF91FA1E4B0E0AC0FBD1FA80F64
:103ED000B91F30818C918327282B1150E8CF81E0C6
:103EE00090E0222321F080E002C080E090E0C05802
:103EF000DF4F0FB6F894DEBF0FBECDBFDF91CF917D
:103F00001F910F91FF90EF90DF90CF90BF90AF90F7
:103F10000895CF92DF92EF92FF920F931F93CF936A
:103F2000DF93CDB7DEB7C056D1090FB6F894DEBF28
:103F30000FBECDBF6B018A01FA0122813381B90125
:103F4000695F7F4F77FF02C0695F7F4F23E0759500
:103F500067952A95E1F7AC01CE018F5B9F4F0E94D8
:103F60006114F80182819381AC01495F5F4F57FF73
:103F700002C0495F5F4F7A0183E0F594E7948A9528
:103F8000E1F76E2DCE018F5B9F4F0E941C058823A9
:103F900019F080E090E034C04E2DBE016F5B7F4F82
:103FA000C80184960E94F509813099F7A801BE01E5
:103FB0006F5B7F4FCE0101960E940B1A882349F355
:103FC000F8016181062E000C770BAE014F5F5F4F49
:103FD000C6010E946114F8018181908141E050E0A6
:103FE0004C0F5D1F490F511D97FD5A95082E000C6F
:103FF000990BBC018C0D9D1D0E94611481E090E025
:10400000C05ADF4F0FB6F894DEBF0FBECDBFDF91B1
:10401000CF911F910F91FF90EF90DF90CF90089577
:104020002F923F924F925F926F927F928F929F92C8
:10403000AF92BF92CF92DF92EF92FF920F931F93B6
:10404000CF93DF93CDB7DEB7A1970FB6F894DEBF5D
:104050000FBECDBF5C014B013A012901680180E42C
:1040600089A31801E4E22E0E311CF60182819381AE
:10407000AC01495F5F4F57FF02C0495F5F4F83E06C
:10408000559547958A95E1F7B101CE0101960E94B9
:10409000FE13892B19F480E090E014C076018201B0
:1040A0009E012F5F3F4FA301B401C5010E948C1AEE
:1040B000892B31F4F9A1F150F9A3F111D6CFEBCF4F
:1040C00081E090E0A1960FB6F894DEBF0FBECDBFA1
:1040D000DF91CF911F910F91FF90EF90DF90CF90E4
:1040E000BF90AF909F908F907F906F905F904F9018
:1040F0003F902F9008952F923F924F925F926F9230
:104100007F928F929F92AF92BF92CF92DF92EF9267
:10411000FF920F931F93CF93DF93CDB7DEB7AD9789
:104120000FB6F894DEBF0FBECDBF9CA38BA32B01AF
:104130005EA34DA369011DA70CA7F8A6EFA2D901A4
:104140001A968D909C901B971896AD90BC901997DD
:10415000A80CB91CF7010181628073801301F7E09C
:104160002F0E311C37FE04C013012EE0220E311C2D
:1041700043E0359427944A95E1F72BA6B401F50165
:1041800041E0D60118962D913C911997CF018A19DB
:104190009B098217930728F44193DB011D92BD010F
:1041A000F0CFB401C6010E94FE14D6011896ED911D
:1041B000FC911997EA0DFB1D108218964D915C91A8
:1041C00019974F5F5F4FB501C6010E943815002E49
:1041D000000C110BA8016BA17CA1C6010E9438152F
:1041E0004DA15EA1B201C6010E943815A401B4011F
:1041F000C6010E943E15A501B401C6010E948E159C
:10420000B401C6010E94FE14D6011896ED91FC91EE
:104210001997EA0DFB1D81E0808318964D915C9102
:1042200019974F5F5F4FB501C6010E943815A8016D
:104230006BA17CA1C6010E9438154DA15EA1B201FF
:10424000C6010E943815A401B401C6010E943E15A2
:10425000A501B401C6010E948E15822D220C990B76
:10426000FC0123E0EE0FFF1F2A95E1F7FAA3E9A373
:104270009F01261937094FEF50E01A0102C035940B
:1042800027942A95E2F730E4332E9E01280F391F38
:104290003AA729A710E0A501B401C6010E948E1516
:1042A000D60118968D919C9119978A0D9B1DF50149
:1042B000E817F90781F321E0210F3191A1E0B0E087
:1042C000AC0FBD1FA10FB11D17FDBA953C93BBA547
:1042D0002B1714F4122FECCFE9A1FAA16E167F066A
:1042E0002CF4A9A5BAA58C9182218C93EFA0F8A4F7
:1042F0000CA51DA59E012F5F3F4F4DA15EA1B201F0
:104300008BA19CA10E948C1A8C01892B19F001E0D1
:1043100010E023C0B401C6010E94FE14D601189615
:10432000ED91FC911997EA0DFB1D108218964D91A5
:104330005C9119974F5F5F4FB501C6010E94381518
:10434000A401B401C6010E943E15A501B401C60135
:104350000E948E153A9431109DCFC801AD960FB6CC
:10436000F894DEBF0FBECDBFDF91CF911F910F91AB
:10437000FF90EF90DF90CF90BF90AF909F908F9085
:104380007F906F905F904F903F902F9008952F9265
:104390003F924F925F926F927F928F929F92AF92D5
:1043A000BF92CF92DF92EF92FF920F931F93CF9322
:1043B000DF93CDB7DEB7C25DD1400FB6F894DEBF54
:1043C0000FBECDBF5C01CF52DE4F79836883C15DE4
:1043D000D140C153DE4F59834883CF5CD14049015E
:1043E0007801D8015C9012968D919C9113976C0185
:1043F000B7E0CB0ED11CD7FE04C06C01EEE0CE0EB0
:10440000D11C23E0D594C7942A95E1F70C2D0C2CF0
:10441000000C110B01501109E1E4F1E0EC0FFD1F5C
:10442000E00FF11F1082E1EAF0E0EC0FFD1FE00F5A
:10443000F11F1082E1E8F0E0EC0FFD1FE00FF11F2B
:104440001082D70111966C91062E000C770BA501F6
:10445000FE0131963F01CF010E946114D7011196F0
:104460006C91252C052C000C3308F301E20DF31D93
:10447000C353DE4FF983E883CD5CD140062E000C98
:10448000770BA501460F571FCF010E946114D7017A
:1044900011966C91062E000C770BA401CE018F555E
:1044A0009F4F0E946114F7016181062E000C770B6B
:1044B000A401460F571FCE018F579F4F0E946114D2
:1044C000652DCE018F559F4F0E941C05811137C26B
:1044D000652DCE018F579F4F0E941C0581112FC261
:1044E0004701F4E28F0E911C4C2DBE016F557F4F9A
:1044F000C4010E946C05813009F021C24C2DBE011F
:104500006F577F4FC4010E946C05813009F017C2BC
:104510002C2DA401BE016F577F4FCE018F599E4FA6
:104520000E94D115E1EAF1E0EC0FFD1FE00FF11F51
:1045300010829701C153DE4F48815981CF5CD14031
:10454000CF52DE4F68817981C15DD140CE018F5558
:104550009E4F0E947D140C2D9401AE014F595E4F69
:10456000BE016F557E4FCB010E94650A9401AE01DA
:104570004F595E4FBE016F557F4FCE018F579E4FF3
:104580000E94650A5E0121E4A20EB11C452DB30113
:10459000C5010E948202C501820D931DC153DE4FE9
:1045A00099838883CF5CD140452DC353DE4F68810A
:1045B0007981CD5CD1400E948202452DD701AC5B50
:1045C000BF4FC353DE4FB983A883CD5CD140BD013B
:1045D000CE018F5F9E4F0E948202C353DE4F6881DF
:1045E0007981CD5CD140620D731D452DCE018F5177
:1045F0009F4F0E948202F7013496CF52DE4FF9831B
:10460000E883C15DD140052D9F01AE014F5F5E4F34
:10461000B501CE018F599E4F0E94480A8701C153B0
:10462000DE4F28813981CF5CD140A501BE016F5199
:104630007F4FCE018F5F9E4F0E944412252DCF5297
:10464000DE4F48815981C15DD140BE016F597E4F17
:10465000CB010E94D1159701AE014F595E4FC15356
:10466000DE4F68817981CF5CD140C5010E94FF1186
:10467000CF53DE4F19821882C15CD140C353DE4F45
:1046800088819981CD5CD140CD53DE4F9983888359
:10469000C35CD140CB53DE4F79826882C55CD14088
:1046A000C953DE4FB982A882C75CD1406C2DCE01C0
:1046B0008F579E4F0E9442055C016C2DCE018F5595
:1046C0009E4F0E9442058501A816B9060CF48C0184
:1046D000580191E0A91AB108B501CE018F559E4F3E
:1046E0000E942E0566246394712C811102C0612CF6
:1046F000712CB501CE018F579E4F0E942E0581115E
:1047000003C0E0E0F0E002C0E2E0F0E0E629F729D3
:10471000EE0FFF1FA1ECB1E0AC0FBD1FEA0FFB1FB6
:10472000A080B180FE01EF5BFE4FC753DE4FF983DF
:10473000E883C95CD140452DB501CF010E948202BA
:10474000B501620D731DCE018F5D9E4FC553DE4FC7
:1047500099838883CB5CD140452D0E948202652DD0
:10476000CE018F599E4F0E945B0281E0CF59DE4FF0
:104770008883C156D140380192E0691A7108DE0180
:10478000AF5BBE4F5D01C553DE4F4880CB5CD1406F
:10479000C453DE4FB881CC5CD140C353DE4FB883E5
:1047A000CD5CD140F701EC55FF4FC153DE4FF9838B
:1047B000E883CF5CD14077FC7EC0C153DE4FA88137
:1047C000B981CF5CD140ED91FC919701AE014F5979
:1047D0005E4F642DC353DE4F7881CD5CD140C5015F
:1047E0000995B301CE018F559E4F0E942E0511E011
:1047F000811101C010E0B301CE018F579E4F0E947E
:104800002E05811182E0182BFE01EF53FE4FE10FC0
:10481000F11DE10FF11D008111810115110509F450
:1048200046C0452DB801CE018F5F9E4F0E94820287
:10483000B801620D731D452DCE018F519F4F0E940F
:1048400082029701AE014F595E4FBE016F517F4FFB
:10485000CE018F5F9E4F0E94FF11052DCF52DE4F7C
:1048600028813981C15DD140AE014F5F5E4FB501F6
:10487000CE018F539F4F0E94480A8701242DC353B6
:10488000DE4F3881CD5CD140A501BE016F517F4F15
:10489000CE018F5F9E4F0E9444129701AE014F538D
:1048A0005F4FBE016F597E4FCB010E94990BB1E063
:1048B0006B1A710880CF252DCF52DE4F4881598168
:1048C000C15DD140BE016F597E4FCB010E94D11511
:1048D0009701AE014F595E4F642DC353DE4F78816F
:1048E000CD5CD140C5010E94FF114C2DB501C40122
:1048F0000E946C05813031F02C2DA401B501C50159
:104900000E940F045A9420E057FC13C0852D052CFB
:10491000000C990BF501E80FF91FA1EAB0E0AC0F0C
:10492000BD1FA80FB91F30818C918327282B5A9463
:10493000EBCF81E090E0222321F080E002C080E014
:1049400090E0CE52DE4F0FB6F894DEBF0FBECDBF63
:10495000DF91CF911F910F91FF90EF90DF90CF905B
:10496000BF90AF909F908F907F906F905F904F908F
:104970003F902F900895909375098093740908953E
:104980002091740930917509C90181709927919519
:10499000819591098827947B3695279582279327BF
:1049A00090937509809374090895BF92CF92DF9216
:1049B000EF92FF920F931F93CF93DF936C017B01D4
:1049C00010E0C12FD0E0CE15DF0578F40E94C0249E
:1049D000082FB92E0E94C024CC0DDD1D80FF02C01F
:1049E000B88201C008831F5FECCF81E090E0DF91C7
:1049F000CF911F910F91FF90EF90DF90CF90BF90DC
:104A000008950F931F93CF93DF938C0184E190E07F
:104A10000E94D94DEC0184E1F801DE0101900D9274
:104A20008A95E1F786E090E00E94D94DFC01D183A0
:104A3000C0831382128215821482DF91CF911F915D
:104A40000F910895EF92FF920F931F93CF93DF93EF
:104A5000EC017B018A819B81009711F0EC01FACF78
:104A600084E190E00E94D94D8C0184E1F701D801E6
:104A700001900D928A95E1F786E090E00E94D94D71
:104A80009B838A83FC0111830083EA81FB8113826B
:104A90001282EA81FB81D583C483DF91CF911F917C
:104AA0000F91FF90EF900895EF92FF920F931F9355
:104AB000CF93DF938C017B0186E090E00E94D94D7B
:104AC000EC0184E190E00E94D94D24E1F701DC0182
:104AD00001900D922A95E1F799838883D801ED9191
:104AE000FC911197FB83EA831D821C82D583C483CA
:104AF000CD93DC93DF91CF911F910F91FF90EF90B9
:104B000008950F931F93CF93DF93EC018A819B81CC
:104B1000892B31F408811981CE010E94714E0FC09A
:104B2000EA81FB8182819381892B11F0EF01F8CF1B
:104B300000811181CF010E94714E1B821A82C8012F
:104B4000DF91CF911F910F910895EF92FF920F93F4
:104B50001F93CF93DF93DC01ED91FC91309791F09F
:104B6000EC01E280F380F70115821482888199813B
:104B7000DC010C9111961C910E94714EF982E88221
:104B8000C80102C080E090E0DF91CF911F910F91AA
:104B9000FF90EF9008950F931F93CF93DF936115CC
:104BA000710541F0EC01A881B98180E090E061508D
:104BB00071090AC0DF91CF911F910F910C94A52527
:104BC000DF01EF2BD9F001961296ED91FC9113972E
:104BD00086179707ACF31081018182819381139628
:104BE0009C938E93129782819381EC01BD83AC8359
:104BF000CF010E94714E812F902F02C080E090E083
:104C0000DF91CF911F910F910895009761F021E0FE
:104C100030E0FC0182819381009719F02F5F3F4FB4
:104C2000F8CFC901089580E090E00895CF93DF9315
:104C3000009741F0FC01D281C3810E94714E8D2FFB
:104C40009C2FF6CFDF91CF9108952F923F924F92F4
:104C50005F926F927F928F929F92AF92BF92CF920C
:104C6000DF92EF92FF920F931F93CF93DF9300D0C9
:104C700000D000D0CDB7DEB7DC012D903C9011976D
:104C800014962D913C911597F101808591852817F7
:104C9000390708F060C116962D913C911797220FA5
:104CA000331F220F331F80819181FC01E20FF31F1C
:104CB00085909590A590B49077276B2D5A2D492D0E
:104CC00049835A836B837C8352964C935297B501E8
:104CD000A401437055276627772724013501E2E0B8
:104CE0007694679457944794EA95D1F741305105EB
:104CF0006105710509F458C008F43CC0F1018081D8
:104D00009181F9013496423051056105710509F030
:104D100087C0E80FF91FC590D590E590F490F90190
:104D20003896E80FF91F4591559165917491F901F5
:104D30003C96E80FF91F05911591259134915196F4
:104D4000BC92AE925097C2018F7399274D2C5E2C66
:104D50006F2C772476E0440C551C7A95E1F7482AAD
:104D6000592A1D965C924E921C971F961C930E9387
:104D70001E978EC081E090E051969C938E93509741
:104D8000FFE34F2255241D965C924E921C974B2DAB
:104D90004F70C42E4A2D50E09CE1B694A79497948E
:104DA00087949A95D1F770C02C5F3F4FF1018081B5
:104DB0009181280F391FF9010591159125913491A1
:104DC000C5019F7051969C938E935097C2018F732B
:104DD000992728013901ECE1769467945794479418
:104DE000EA95D1F7F6E0440C551CFA95E1F7482A0C
:104DF000592A1D965C924E921C978CE1B694A7940A
:104E0000979487948A95D1F7C82CB901A801662791
:104E10007727C9019F701F969C938E931E9738C069
:104E2000E80FF91FC590D590E590F490F9013896F8
:104E3000E80FF91F4591559165917491F9013C96E0
:104E4000E80FF91F85909590A590B490F9017096A0
:104E5000E80FF91F059115912591349151961C93F6
:104E60000E935097C2018F7399274D2C5E2C6F2C97
:104E7000772436E0440C551C3A95E1F7482A592A24
:104E80001D965C924E921C971F969C928E921E9736
:104E900012968D919C911397009749F454961C9209
:104EA0001E92539758961C921E92579732C0FC013F
:104EB000E40FF51F5496FC93EE935397CC2031F0FA
:104EC000CF018C199109C7FC939509C08981807322
:104ED000803251F4498146FD07C0CD014096589675
:104EE0009C938E93579704C058961C921E92579786
:104EF0008981807C803849F4309739F080819181B4
:104F000056969C938E93559704C05696FC93EE93B9
:104F1000559752968C9152978F7090E00897029710
:104F2000A0F41A96ED91FC911B979F01220F331F5D
:104F3000F10182819381F901E80FF91F808191814C
:104F40005A969C938E93599704C05A961C921E921F
:104F5000599781E001C080E026960FB6F894DEBF35
:104F60000FBECDBFDF91CF911F910F91FF90EF90BA
:104F7000DF90CF90BF90AF909F908F907F906F9079
:104F80005F904F903F902F900895CF92DF92EF92D5
:104F9000FF92DC0114968D919C91159701961596C0
:104FA0009C938E931497ED91FC91119720853185F8
:104FB0008217930788F015961C921E9214971796E5
:104FC0001C921E9216971B961C921E921A97199667
:104FD0001C921E9218974CC016962D913C911797D3
:104FE000C901880F991F880F991F0190F081E02D4A
:104FF000E80FF91FC590D590E590F49077276F2DB5
:105000005E2D4D2D83E0C822DD2481E090E002C0BA
:10501000880F991FCA94E2F7280F391F17963C93FF
:105020002E931697242F207381E090E011F080E0FA
:1050300090E018962D913C911997820F931F199625
:105040009C938E9318974F7050E04850510981E01F
:1050500090E04230510510F080E090E01A962D91DA
:105060003C911B97820F931F1B969C938E931A97CC
:10507000FF90EF90DF90CF9008952BE1FC0111920B
:105080002A95E9F7FC0171836083538342830C9472
:1050900025260F931F93CF93DF938C01EB01E881BB
:1050A000F98164817581DB01ED91FC918591959188
:1050B000A591B491892F9A2FAB2FBB27807C99277C
:1050C000AA27BB2780389105A105B10521F4AE01BF
:1050D0004E5F5F4F02C04A815B81C8010E943D283C
:1050E0002696F801D08FC78BDF91CF911F910F913A
:1050F0000895CF93DF93EC010E94C527CE010E9453
:10510000252681E02C813D81232B09F480E0DF916D
:10511000CF9108958F929F92AF92BF92CF92DF92DC
:10512000EF92FF920F931F93CF93DF93EC018C8448
:105130009D84A12CB12C84169506A606B70611F401
:1051400081E05AC0E881F98184859585A0E0B0E0CE
:1051500084179507A607B70708F44DC06A017B01BD
:105160000C811D81481559056A057B0520F4808551
:1051700091859D838C83CE010E94C527A881B9812A
:10518000EE81FF81EE0FFF1FEE0FFF1F8D919C91AF
:10519000E80FF91F85919591A591B49122E0B695FC
:1051A000A795979587952A95D1F78C259D25AE25AE
:1051B000BF258F739927AA27BB27892B8A2B8B2B77
:1051C00049F08C819D8108171907A9F6CE010E942C
:1051D000252611C0CE010E9425268C859D85A0E044
:1051E000B0E0C816D906EA06FB0659F78A898F701F
:1051F0008A3039F3A5CF80E0DF91CF911F910F91D5
:10520000FF90EF90DF90CF90BF90AF909F908F90E6
:1052100008950F931F93CF93DF93EC019A899F70AA
:105220009A3091F10C811D81CE010E94C527A88181
:10523000B981EE81FF81EE0FFF1FEE0FFF1F8D91F1
:105240009C91E80FF91F85919591A591B491892FB3
:105250009A2FAB2FBB278F709927AA27BB270A97B6
:10526000A105B10539F4CE01DF91CF911F910F91C6
:105270000C9425268C819D8108171907A9F6CE016B
:105280000E94252680E001C081E0DF91CF911F912F
:105290000F9108950C943D280C9449289B01BA0164
:1052A000FA014685578544305105E1F4A589B68950
:1052B0001097C1F0009749F0ED91FC91119730974C
:1052C00021F0AD014E5F5F4F0CC02115310551F04B
:1052D000ED91FC911197309729F0AD014E5F5F4F32
:1052E000C901099481E00895FC01A281B3819D0167
:1052F000240F351F33832283FB01460F571FE4170A
:10530000F50719F081918D93FACF81E00895FC01A2
:1053100081E09081911101C080E00895CF93DF93E7
:10532000CDB7DEB76B970FB6F894DEBF0FBECDBF1B
:10533000FC018289982F907C09F061C0982F9073AE
:1053400009F47CC0903211F0903321F40788F08D7D
:10535000E02D6DC0903159F42789308D211531052C
:1053600031F0C9010E94872991E0892768C0A08196
:10537000B18114962D913C911597232B09F05EC0B5
:105380008F70863068F4A589B689868597858A0FDF
:105390009B1FA817B90731F12D912223D1F34EC0DD
:1053A000863009F441C0873049F40588F689E02D3C
:1053B00081E09081992309F442C040C08B3021F4F0
:1053C00081E02685378538C090E008970297B0F5D0
:1053D00045895689618D728DCE0101960E943D28C6
:1053E000811102C081E02BC0CE0101960E948E295E
:1053F000882329F1CE0101960E947928F1CF9038B7
:1054000021F481E02589368917C09034B9F48F7072
:105410008A3051F0A081B18116962D913C91179759
:1054200089E22E34380739F40588F689E02D81E0C9
:105430002081318101C081E0232B09F080E06B964F
:105440000FB6F894DEBF0FBECDBFDF91CF910895A8
:10545000FC0184E799E2918380837383628355839F
:1054600044831782168211861086CF0108950F9308
:105470001F93CF93DF93EC018A014115510549F148
:10548000E881F981309729F12E813F81CA01820F8D
:10549000931F8217930728F02C813D812817390725
:1054A00050F488859985009711F483E596E09987F3
:1054B000888780E015C0CE01099581110AC0288532
:1054C00039852115310511F42FE536E03987288714
:1054D00007C08E819F81080F191F1F830E8381E0F3
:1054E000DF91CF911F910F9108952F923F925F927C
:1054F0006F927F928F929F92AF92BF92CF92DF92E4
:10550000EF92FF920F931F93CF93DF93CDB7DEB748
:105510002A970FB6F894DEBF0FBECDBF3C014801FD
:1055200059016A017B019801A501B601C701AFE7E6
:10553000FE0131961F010E94B94D09F020F4098344
:1055400041E050E066C09801A501B601C70100E244
:105550000E946D4D722F022F132F9A01682D6F77C5
:10556000D501C401F7E0B695A79597958795FA956B
:10557000D1F7710140E050E00097A105B10599F025
:105580004F5F5F4F6068F70161937F01682F6F770E
:10559000E7E0B695A79597958795EA95D1F74430BA
:1055A000510551F706C0011511052105310541F7D7
:1055B0002AC0011511052105310529F1872F8770B2
:1055C000582E529490EF5922652943E0369527953D
:1055D000179507954A95D1F7DE011596AD01421949
:1055E0005309011511052105310569F0862F8068E1
:1055F0008D93602F6F7787E03695279517950795E0
:105600008A95D1F7EBCFD101A40FB51F6C934F5FF3
:105610005F4FB101C3010E94372A2A960FB6F89452
:10562000DEBF0FBECDBFDF91CF911F910F91FF90D5
:10563000EF90DF90CF90BF90AF909F908F907F9032
:105640006F905F903F902F900895DF92EF92FF92BE
:105650000F931F93CF93DF93FC01D22EE32EF42EF2
:10566000D52FC62FB72F98014D2D5E2D6F2D7D2F75
:105670008C2F9B2FA0E00E94B94D64F401E00E94A2
:10568000524D209530954095509560957095809538
:1056900090950AC098014D2D5E2D6F2D7D2F8C2F7A
:1056A0009B2F01E00E94524D89019A01AB01BC0180
:1056B000CF010E94752ADF91CF911F910F91FF902A
:1056C000EF90DF9008958F929F92AF92BF92CF920A
:1056D000DF92EF92FF920F931F93CF93FB01C2894A
:1056E000CF7026853785C230B1F52130310531F4D0
:1056F0000588F689E02D8080912C08C02230310584
:1057000041F40588F689E02D80809180A12CB12C90
:105710000AC02430310559F40588F689E02D8080CF
:105720009180A280B380C12CD12C76010FC028308B
:10573000310509F056C00588F689E02D80809180FA
:10574000A280B380C480D580E680F7808401950173
:10575000A601B7015BC02130310571F40588F689D7
:10576000E02D0081102F110F110B212F312FF12E61
:10577000B12FA12F712F42C02230310571F405885D
:10578000F689E02D11810081212F220F220B322F6B
:10579000F22EB22FA22F722F31C02430310591F496
:1057A0000588F689E02D40815181628173818A01EB
:1057B0009B01770F440B542FBA01F42EB42FA42F62
:1057C000742F1CC02830310561F40588F689E02D5E
:1057D0000081118122813381F480B581A681778196
:1057E0000DC0FC01208531852115310511F428E615
:1057F00036E0FC013187208780E00AC04F2D5B2F07
:105800006A2FC33019F40E94252B02C00E94752A0A
:10581000CF911F910F91FF90EF90DF90CF90BF90AD
:10582000AF909F908F900895CF93DF9300D000D0DA
:10583000CDB7DEB7FB01508141813281238159838D
:105840004A833B832C8344E050E0BE016F5F7F4F6F
:105850000E94372A0F900F900F900F90DF91CF91F9
:1058600008959F92AF92BF92CF92DF92EF92FF92F4
:105870000F931F93CF93DF93CDB7DEB728970FB663
:10588000F894DEBF0FBECDBF5C01DB01EC91119639
:105890009C9011971296CC9012971396DC901397C8
:1058A0001496EC9014971596FC90159716961C91EB
:1058B00016971796FC91E9832E2F392DA601B70173
:1058C000812F9F2F08E00E946D4D2A832E2F392DA6
:1058D000A601B701812F9F2F00E10E946D4D2B8300
:1058E0002E2F392DA601B701812F9F2F08E10E948D
:1058F0006D4D2C832E2F392DA601B701812F9F2F9F
:1059000000E20E946D4D2D832E2F392DA601B70187
:10591000812F9F2F08E20E946D4D2E832E2F392D4F
:10592000A601B701812F9F2F00E30E946D4D2F83A9
:105930002E2F392DA601B701812F9F2F08E30E943A
:105940006D4D288748E050E0BE016F5F7F4FC50175
:105950000E94372A28960FB6F894DEBF0FBECDBF3F
:10596000DF91CF911F910F91FF90EF90DF90CF903B
:10597000BF90AF909F900895FB0126853785243016
:10598000310521F4658976890C94142C2830310571
:1059900021F4658976890C94312CFC0120853185B0
:1059A0002115310511F428E636E0FC013187208706
:1059B00080E008956F927F928F929F92AF92BF92F4
:1059C000CF92DF92EF92FF920F931F93CF93DF93CB
:1059D0007C016B01DA01C901AD0160E070E080E09B
:1059E00090E003E00E94524D89019A0136010C2992
:1059F0001729AB01BC01C7010E94752ADF91CF9125
:105A00001F910F91FF90EF90DF90CF90BF90AF90DC
:105A10009F908F907F906F900895DB0152964C91EC
:105A20005297E42FEF704E2F50E04C30510558F450
:105A3000FA01EA5BFF4F0C94354D65E070E011C050
:105A400062E070E00EC0FC01208531852115310532
:105A500081F42AE736E00DC060E070E002C061E04A
:105A600070E01C962D913C911D9740E050E00C9405
:105A7000DA2CFC013187208780E00895CF92DF92F5
:105A8000EF92FF920F931F93CF93DF93EC016B0183
:105A90007A018A0120E030E040E050E060E070E010
:105AA0000E94752A882369F0A701B601CE01DF9113
:105AB000CF911F910F91FF90EF90DF90CF900C94BA
:105AC000372A80E0DF91CF911F910F91FF90EF90E7
:105AD000DF90CF9008956F927F928F929F92AF92B6
